:020000040800F2
:100000000080002009160008F913000801140008F8
:100010000914000811140008191400080000000059
:100020000000000000000000000000002114000893
:100030002F140008000000003D1400084B140008B5
:1000400059160008591600085916000859160008D4
:1000500059160008591600085916000859160008C4
:1000600059160008591600085916000859160008B4
:1000700059160008591600085916000859160008A4
:10008000591600080000000059160008591600080B
:100090005916000859160008591600085916000884
:1000A0005916000859160008591600085916000874
:1000B0005916000859160008591600085916000864
:1000C0005916000859160008591600085916000854
:1000D0005916000859160008591600085916000844
:1000E0005916000859160008591600085916000834
:1000F000591600085916000859160008000000009B
:100100000000000059160008000000005916000801
:10011000591600080000000059160008591600087A
:1001200059160008591600085916000859160008F3
:1001300059160008000000000000000059160008D1
:1001400059160008591600080000000000000000C1
:10015000000000000000000000000000000000009F
:100160000000000000000000000000005916000818
:100170005916000800000000000000000000000008
:1001800000000000591600080000000000000000F8
:10019000000000000000000000000000000000005F
:1001A0000000000000000000591600085916000861
:1001B00059160008591600085916000800000000DA
:1001C00000000000591600080000000000000000B8
:0801D000591600085916000839
:1001E00010B5054C237833B9044B13B10448AFF371
:1001F00000800123237010BDD40100200000000006
:10020000A07E000808B5034B1BB103490348AFF3B8
:10021000008008BD00000000D8010020A07E00087A
:1002200001F0FF01102A2BDB10F0070F08D010F8A7
:10023000013B013A8B422DD010F0070F42B3F6D1AB
:10024000F0B441EA012141EA014122F007047FF0C4
:1002500000070023F0E80256083C85EA010586EA1B
:10026000010685FA47F5A3FA87F586FA47F6A5FA57
:1002700087F68EB9EED1F0BC01F0FF0102F0070263
:1002800032B110F8013B013A83EA010313B1F8D10E
:100290000020704701387047002D06BF35460338EF
:1002A000073815F0010F07D1013015F4807F02BF28
:1002B000013015F4C03F0130F0BC0138704700BF79
:1002C000034613F8012B002AFBD1181A0138704796
:1002D00081F0004102E000BF83F0004330B54FEAF7
:1002E00041044FEA430594EA050F08BF90EA020F64
:1002F0001FBF54EA000C55EA020C7FEA645C7FEAF7
:10030000655C00F0E2804FEA5454D4EB5555B8BF19
:100310006D420CDD2C4480EA020281EA030382EA8A
:10032000000083EA010180EA020281EA0303362D1C
:1003300088BF30BD11F0004F4FEA01314FF4801CEF
:100340004CEA113102D0404261EB410113F0004F01
:100350004FEA03334CEA133302D0524263EB4303B8
:1003600094EA050F00F0A780A4F10104D5F1200E56
:100370000DDB02FA0EFC22FA05F2801841F10001B1
:1003800003FA0EF2801843FA05F359410EE0A5F185
:1003900020050EF1200E012A03FA0EFC28BF4CF0B6
:1003A000020C43FA05F3C01851EBE37101F000456C
:1003B00007D54FF0000EDCF1000C7EEB00006EEB79
:1003C0000101B1F5801F1BD3B1F5001F0CD3490803
:1003D0005FEA30004FEA3C0C04F101044FEA44525A
:1003E00012F5800F80F09A80BCF1004F08BF5FEAE1
:1003F000500C50F1000041EB045141EA050130BDC1
:100400005FEA4C0C404141EB0101013C28BFB1F5D2
:10041000801FE9D291F0000F04BF01460020B1FA1D
:1004200081F308BF2033A3F10B03B3F120020CDAF0
:100430000C3208DD02F1140CC2F10C0201FA0CF0CE
:1004400021FA02F10CE002F11402D8BFC2F1200C33
:1004500001FA02F120FA0CFCDCBF41EA0C019040E9
:10046000E41AA2BF01EB0451294330BD6FEA040432
:100470001F3C1CDA0C340EDC04F11404C4F120021D
:1004800020FA04F001FA02F340EA030021FA04F32F
:1004900045EA030130BDC4F10C04C4F1200220FA86
:1004A00002F001FA04F340EA0300294630BD21FAC4
:1004B00004F0294630BD94F0000F83F4801306BF8A
:1004C00081F480110134013D4EE77FEA645C18BF7E
:1004D0007FEA655C29D094EA050F08BF90EA020F15
:1004E00005D054EA000C04BF1946104630BD91EA0D
:1004F000030F1EBF0021002030BD5FEA545C05D110
:100500004000494128BF41F0004130BD14F580044E
:100510003CBF01F5801130BD01F0004545F0FE41C2
:1005200041F470014FF0000030BD7FEA645C1ABFF7
:10053000194610467FEA655C1CBF0B46024650EA2E
:10054000013406BF52EA033591EA030F41F400215A
:1005500030BD00BF90F0000F04BF0021704730B5E0
:100560004FF4806404F132044FF000054FF00001B5
:1005700050E700BF90F0000F04BF0021704730B576
:100580004FF4806404F1320410F0004548BF40424B
:100590004FF000013EE700BF42004FEAE2014FEAA0
:1005A00031014FEA02701FBF12F07F4393F07F4F7B
:1005B00081F06051704732F07F4208BF704793F07E
:1005C0007F4F04BF41F40021704730B54FF4607491
:1005D00001F0004521F000411CE700BF50EA010294
:1005E00008BF704730B54FF000050AE050EA01023D
:1005F00008BF704730B511F0004502D5404261EBAD
:1006000041014FF4806404F132045FEA915C3FF4ED
:10061000D8AE4FF003025FEADC0C18BF03325FEA8A
:10062000DC0C18BF033202EBDC02C2F1200300FA3B
:1006300003FC20FA02F001FA03FE40EA0E0021FA60
:1006400002F11444BDE600BF70B54FF0FF0C4CF44E
:10065000E06C1CEA11541DBF1CEA135594EA0C0F00
:1006600095EA0C0F00F0DEF82C4481EA030621EA3B
:100670004C5123EA4C5350EA013518BF52EA033576
:1006800041F4801143F4801338D0A0FB02CE4FF028
:100690000005E1FB02E506F00042E0FB03E54FF058
:1006A0000006E1FB03569CF0000F18BF4EF0010E50
:1006B000A4F1FF04B6F5007F64F5407404D25FEA4C
:1006C0004E0E6D4146EB060642EAC62141EA5551FF
:1006D0004FEAC52040EA5E504FEACE2EB4F1FD0C41
:1006E00088BFBCF5E06F1ED8BEF1004F08BF5FEABF
:1006F000500E50F1000041EB045170BD06F0004671
:1007000046EA010140EA020081EA0301B4EB5C041D
:10071000C2BFD4EB0C0541EA045170BD41F4801115
:100720004FF0000E013C00F3AB8014F1360FDEBF3A
:10073000002001F0004170BDC4F10004203C35DA16
:100740000C341BDC04F11404C4F1200500FA05F399
:1007500020FA04F001FA05F240EA020001F000423A
:1007600021F0004110EBD37021FA04F642EB0601B0
:100770005EEA430E08BF20EAD37070BDC4F10C04DA
:10078000C4F1200500FA04F320FA05F001FA04F29E
:1007900040EA020001F0004110EBD37041F100018A
:1007A0005EEA430E08BF20EAD37070BDC4F1200595
:1007B00000FA05F24EEA020E20FA04F301FA05F2FD
:1007C00043EA020321FA04F001F0004121FA04F2A5
:1007D00020EA020000EBD3705EEA430E08BF20EA75
:1007E000D37070BD94F0000F0FD101F000464000AF
:1007F00041EB010111F4801F08BF013CF7D041EA31
:10080000060195F0000F18BF704703F00046520034
:1008100043EB030313F4801F08BF013DF7D043EA05
:100820000603704794EA0C0F0CEA135518BF95EABB
:100830000C0F0CD050EA410618BF52EA4306D1D142
:1008400081EA030101F000414FF0000070BD50EA61
:10085000410606BF1046194652EA430619D094EAEB
:100860000C0F02D150EA013613D195EA0C0F05D1D5
:1008700052EA03361CBF104619460AD181EA030129
:1008800001F0004141F0FE4141F470014FF00000E1
:1008900070BD41F0FE4141F4780170BD70B54FF07C
:1008A000FF0C4CF4E06C1CEA11541DBF1CEA1355FC
:1008B00094EA0C0F95EA0C0F00F0A7F8A4EB0504DE
:1008C00081EA030E52EA03354FEA013100F08880D5
:1008D0004FEA03334FF0805545EA131343EA12639E
:1008E0004FEA022245EA111545EA10654FEA002653
:1008F0000EF000419D4208BF964244F1FD0404F50C
:10090000407402D25B084FEA3202B61A65EB030567
:100910005B084FEA32024FF480104FF4002CB6EB24
:10092000020E75EB030E22BFB61A754640EA0C00A4
:100930005B084FEA3202B6EB020E75EB030E22BFE4
:10094000B61A754640EA5C005B084FEA3202B6EB25
:10095000020E75EB030E22BFB61A754640EA9C00E4
:100960005B084FEA3202B6EB020E75EB030E22BFB4
:10097000B61A754640EADC0055EA060E18D04FEA72
:10098000051545EA16754FEA06164FEAC30343EA12
:1009900052734FEAC2025FEA1C1CC0D111F4801FDF
:1009A0000BD141EA00014FF000004FF0004CB6E7D8
:1009B00011F4801F04BF01430020B4F1FD0C88BF77
:1009C000BCF5E06F3FF6AFAEB5EB030C04BFB6EB82
:1009D000020C5FEA500C50F1000041EB045170BD75
:1009E0000EF0004E4EEA113114EB5C04C2BFD4EBA2
:1009F0000C0541EA045170BD41F480114FF0000E26
:100A0000013C90E645EA060E8DE60CEA135594EAA1
:100A10000C0F08BF95EA0C0F3FF43BAF94EA0C0FA4
:100A20000AD150EA01347FF434AF95EA0C0F7FF419
:100A300025AF104619462CE795EA0C0F06D152EA6D
:100A400003353FF4FDAE1046194622E750EA410651
:100A500018BF52EA43067FF4C5AE50EA41047FF462
:100A60000DAF52EA43057FF4EBAE12E74FF0FF3CC7
:100A700006E000BF4FF0010C02E000BF4FF0010C98
:100A80004DF804CD4FEA410C7FEA6C5C4FEA430C11
:100A900018BF7FEA6C5C1BD001B050EA410C0CBF60
:100AA00052EA430C91EA030F02BF90EA020F0020C2
:100AB000704710F1000F91EA030F58BF994208BF29
:100AC00090422CBFD8176FEAE37040F001007047E6
:100AD0004FEA410C7FEA6C5C02D150EA013C07D13D
:100AE0004FEA430C7FEA6C5CD6D152EA033CD3D088
:100AF0005DF8040B704700BF8446104662468C4682
:100B00001946634600E000BF01B5FFF7B7FF0028B4
:100B100048BF10F1000F01BD4DF808EDFFF7F4FFDD
:100B20000CBF012000205DF808FB00BF4DF808ED68
:100B3000FFF7EAFF34BF012000205DF808FB00BF8B
:100B40004DF808EDFFF7E0FF94BF012000205DF8AD
:100B500008FB00BF4DF808EDFFF7CEFF94BF012062
:100B600000205DF808FB00BF4DF808EDFFF7C4FF5B
:100B700034BF012000205DF808FB00BF4FEA410CA4
:100B80007FEA6C5C02D150EA013C0AD14FEA430C87
:100B90007FEA6C5C02D152EA033C02D14FF00000C4
:100BA00070474FF0010070474FEA410212F5001202
:100BB00015D211D56FF47873B3EB625212D94FEAA4
:100BC000C12343F0004343EA505311F0004F23FA8E
:100BD00002F018BF404270474FF00000704750EAE3
:100BE000013005D111F0004008BF6FF000407047A0
:100BF0004FF00000704700BF53B94AB9002908BF41
:100C000000281CBF4FF0FF314FF0FF3000F06AB9F1
:100C1000ADF1080C6DE904CE00F006F8DDF804E053
:100C2000DDE9022304B070472DE9F047089D0C462A
:100C3000002B4ED194468C458646B2FA82F262D998
:100C40004AB1C2F12003914020FA03F30CFA02FCEE
:100C5000194300FA02FE4FEA1C471FFA8CF6B1FB5B
:100C6000F7F44FEA1E4307FB141143EA014304FB68
:100C700006F199420AD91CEB030304F1FF3080F01E
:100C80001281994240F20F81023C6344591A1FFAC3
:100C90008EF3B1FBF7F007FB101143EA014300FBB1
:100CA00006F69E420AD91CEB030300F1FF3180F0E7
:100CB000FC809E4240F2F980634402389B1B40EA6C
:100CC000044000211DB1D3400022C5E90032BDE837
:100CD000F0878B4205D90DB1C5E900010021084616
:100CE000F5E7B3FA83F1002946D1A34202D390423B
:100CF000C0F0F080861A64EB03030120002DE6D0DB
:100D0000C5E90063E3E7002A40F09080A1EB0C0402
:100D10004FEA1C481FFA8CF70121B4FBF8F64FEAA2
:100D20001E4308FB164443EA044307FB06F09842BF
:100D300008D91CEB030306F1FF3402D2984200F2FB
:100D4000CD8026461C1A1FFA8EF3B4FBF8F008FB80
:100D5000104443EA044300FB07F79F4208D91CEB09
:100D6000030300F1FF3402D29F4200F2B08020461C
:100D7000DB1B40EA0640A5E7C1F120068B4022FAC2
:100D800006F71F4320FA06FC04FA01F343EA0C03BA
:100D9000F44000FA01F8380C4FEA1349B4FBF0FEB6
:100DA0001FFA87FC00FB1E4449EA04440EFB0CF9C1
:100DB000A14502FA01F20AD93C190EF1FF3A80F07E
:100DC0008480A14540F28180AEF1020E3C44A4EB48
:100DD00009041FFA83F9B4FBF0F300FB134449EA5A
:100DE000044403FB0CFCA44507D93C1903F1FF3074
:100DF00067D2A44565D9023B3C4443EA0E40A0FBC0
:100E00000293A4EB0C049C42CE469C4651D34ED098
:100E100055B1B8EB0E0364EB0C0404FA06F6CB40B4
:100E20001E43CC40C5E90064002150E7C2F1200315
:100E300020FA03F10CFA02FC24FA03F394400C4369
:100E40004FEA1C4800FA02FE1FFA8CF7B3FBF8F0D9
:100E500008FB1031230C43EA014300FB07F19942E0
:100E600008D91CEB030300F1FF362CD299422AD992
:100E7000023863445B1AA4B2B3FBF8F108FB1133E8
:100E800044EA034401FB07F3A34208D91CEB040422
:100E900001F1FF3613D2A34211D902396444E41A96
:100EA00041EA004139E70446F0E6084606E7C8454E
:100EB000AED2B9EB020E63EB070C0138A8E731465E
:100EC000EDE7034699E73046D4E7D6467FE763442B
:100ED00002384DE70646234608460FE7023E6344C4
:100EE00030E700BF704700BFF0B585B004AF00F039
:100EF000B4FB00F08FF800F091F900F0CBF800F0AF
:100F000041F9384801F03AF86421364801F026F9F1
:100F10000346002B5ED1334801F0F8F90346324A0C
:100F20001360314B1B6807EE903AF8EE677A9FED3D
:100F30002F7A27EE877ADFED2E6AC7EE267A2D4BC1
:100F4000C3ED007A2B4B93ED007ADFED2B6AC7EEF1
:100F5000267A2A4BC3ED007A284BD3ED007AF5EEC2
:100F6000C07AF1EE10FA04D5244B4FF000021A605B
:100F70000CE0224BD3ED007A9FED217AF4EEC77A94
:100F8000F1EE10FA02DD1D4B1E4A1A60164B1E6868
:100F9000184B1B681846FFF7FFFA04460D46174B1F
:100FA0001B681846FFF7F8FA02460B46CDE9022304
:100FB000CDE900453346144A6421144804F02EFE5E
:100FC0001248FFF77DF903469AB264230F4910488F
:100FD00003F08EFA034801F08DF84FF47A7000F0B8
:100FE000ADFB8EE7F0010020F002002033335340C8
:100FF00000F07F45F40200200AD7A33CF80200204D
:101000000000254300002543B87E0008FC020020B4
:101010005C02002080B594B000AF07F118033822BD
:101020000021184604F071FE3B1D00221A605A6030
:101030009A60DA601A614FF4007002F037FA022306
:10104000BB614FF480737B624023BB6200237B63F0
:1010500007F11803184602F0DDFA0346002B01D011
:1010600000F0F4F80F237B600123BB600023FB60DA
:1010700000233B6100237B613B1D0021184602F0E9
:10108000DBFD0346002B01D000F0E0F800BF503735
:10109000BD4680BD80B58CB000AF07F124030022AF
:1010A0001A605A609A603B1D20220021184604F005
:1010B0002CFE324B4FF0A0421A60304B4FF40032FE
:1010C0005A602E4B00229A602C4B0022DA602B4B88
:1010D00000221A61294B00225A61284B04229A618E
:1010E000264B00221A77254B00225A77234B0122E8
:1010F0001A62224B002283F82420204B0022DA625D
:101100001E4B00221A631D4B002283F838201B4B14
:101110000022DA63194B002283F84020174800F0C0
:10112000A9FD0346002B01D000F090F800237B625C
:1011300007F124031946114801F0AEFE0346002BC7
:1011400001D000F083F80E4B7B600623BB600223C6
:10115000FB607F233B6104237B610023BB613B1D5C
:101160001946064801F0E0F80346002B01D000F0D4
:101170006DF800BF3037BD4680BD00BFF0010020D4
:101180000200300480B500AF224B234A1A60214B85
:101190004FF4E1325A601F4B00229A601D4B00222F
:1011A000DA601C4B00221A611A4B0C225A61194B4F
:1011B00000229A61174B0022DA61164B00221A6254
:1011C000144B00225A62134B00229A62114803F01A
:1011D0003FF90346002B01D000F038F800210D48FC
:1011E00003F038FF0346002B01D000F02FF8002158
:1011F000084803F06DFF0346002B01D000F026F8ED
:10120000044803F0EEFE0346002B01D000F01EF868
:1012100000BF80BD5C0200200038014080B483B074
:1012200000AF094BDB6C084A43F00103D364064B63
:10123000DB6C03F001037B607B6800BF0C37BD46AD
:101240005DF8047B704700BF0010024080B400AF1F
:1012500072B600BF00BFFDE780B582B000AF0F4B94
:101260001B6E0E4A43F0010313660C4B1B6E03F01A
:1012700001037B607B68094B9B6D084A43F08053F8
:101280009365064B9B6D03F080533B603B6802F017
:10129000B1F900BF0837BD4680BD00BF0010024055
:1012A00080B59AB000AF786007F1540300221A604D
:1012B0005A609A60DA601A6107F110034422002133
:1012C000184604F022FD7B681B68B3F1A04F34D1AF
:1012D0004FF400433B614FF00053FB6407F11003F0
:1012E000184602F0C5FE0346002B01D0FFF7AEFF03
:1012F000144BDB6C134A43F40053D364114BDB6C87
:1013000003F40053FB60FB680E4BDB6C0D4A43F0AB
:101310000103D3640B4BDB6C03F00103BB60BB68C0
:1013200001237B650323BB650023FB6507F15403A1
:1013300019464FF0904001F037FF00BF6837BD46B7
:1013400080BD00BF0010024080B59AB000AF786049
:1013500007F1540300221A605A609A60DA601A6139
:1013600007F1100344220021184604F0CEFC7B68EC
:101370001B681F4A934237D101233B6100237B61E5
:1013800007F11003184602F073FE0346002B01D04C
:10139000FFF75CFF174B1B6E164A43F4804313663E
:1013A000144B1B6E03F48043FB60FB68114BDB6C3A
:1013B000104A43F00103D3640E4BDB6C03F00103CE
:1013C000BB60BB684FF4C0637B650223BB65002331
:1013D000FB6500233B6607237B6607F15403194630
:1013E0004FF0904001F0E0FE00BF6837BD4680BD81
:1013F000003801400010024080B400AF00BFFDE79C
:1014000080B400AF00BFFDE780B400AF00BFFDE7D0
:1014100080B400AF00BFFDE780B400AF00BFFDE7C0
:1014200080B400AF00BFBD465DF8047B704780B458
:1014300000AF00BFBD465DF8047B704780B400AFCD
:1014400000BFBD465DF8047B704780B500AF00F07B
:1014500057F900BF80BD80B400AF01231846BD46D8
:101460005DF8047B704780B582B000AF786039606A
:1014700004F09EFC034616221A604FF0FF33184614
:101480000837BD4680BD80B582B000AF78604FF0B0
:10149000FF317868FFF7E7FF00BFFDE780B586B052
:1014A00000AFF860B9607A6000237B610AE0AFF3B7
:1014B00000800146BB685A1CBA60CAB21A707B69C8
:1014C00001337B617A697B689A42F0DB7B6818465E
:1014D0001837BD4680BD80B586B000AFF860B960F2
:1014E0007A6000237B6109E0BB685A1CBA601B78F4
:1014F0001846AFF300807B6901337B617A697B68B2
:101500009A42F1DB7B6818461837BD4680BD80B42F
:1015100083B000AF78604FF0FF3318460C37BD46FC
:101520005DF8047B704780B483B000AF78603960A9
:101530003B684FF400525A60002318460C37BD46F2
:101540005DF8047B704780B483B000AF78600123FE
:1015500018460C37BD465DF8047B704780B485B0F3
:1015600000AFF860B9607A60002318461437BD46B2
:101570005DF8047B7047000080B586B000AF7860EE
:10158000144A154BD31A7B617B693B61134B1B6873
:10159000002B02D1114B124A1A60104B1A687B685B
:1015A00013443A699A4207D204F002FC03460C2223
:1015B0001A604FF0FF3309E0084B1B68FB60074BD4
:1015C0001A687B681344054A1360FB68184618378D
:1015D000BD4680BD008000200004000060030020A4
:1015E000B804002080B400AF064BD3F88830054A19
:1015F00043F47003C2F8883000BFBD465DF8047B39
:10160000704700BF00ED00E00D488546FFF7EAFF98
:101610000C480D490D4A002302E0D458C45004334D
:10162000C4188C42F9D30A4A0A4C002301E0136023
:101630000432A242FBD304F0C1FBFFF755FCFEE7E6
:101640000080002000000020D4010020B0820008AB
:10165000D4010020B4040020FEE780B582B000AFC2
:101660000023FB71032001F06DFD0F2000F00EF848
:101670000346002B02D00123FB7101E0FFF7ECFDD4
:10168000FB7918460837BD4680BD000080B584B0A0
:1016900000AF78600023FB73164B1B68002B22D031
:1016A000154B1A68134B1B684FF47A71B1FBF3F3B7
:1016B000B2FBF3F3184601F06AFD0346002B0FD18D
:1016C0007B680F2B09D8002279684FF0FF3001F0BA
:1016D00044FD0A4A7B68136007E00123FB7304E0C2
:1016E0000123FB7301E00123FB73FB7B18461037DA
:1016F000BD4680BD0800002000000020040000203E
:1017000080B400AF054B1A68054B1B681344034AAD
:10171000136000BFBD465DF8047B70476403002082
:101720000800002080B400AF034B1B681846BD467C
:101730005DF8047B704700BF6403002080B584B06F
:1017400000AF7860FFF7EEFFB8607B68FB60FB6876
:10175000B3F1FF3F04D0094B1B68FA681344FB60E8
:1017600000BFFFF7DFFF0246BB68D31AFA689A4250
:10177000F7D800BF00BF1037BD4680BD080000206D
:1017800080B483B000AF786039607B689B6823F4D5
:101790007C123B681A437B689A6000BF0C37BD46D9
:1017A0005DF8047B704780B483B000AF7860396027
:1017B0007B689B6823F0E0723B681A437B689A6001
:1017C00000BF0C37BD465DF8047B704780B483B022
:1017D00000AF78607B689B6803F0E07318460C37B5
:1017E000BD465DF8047B704780B487B000AFF860F9
:1017F000B9607A603B60FB6860331A46BB689B0047
:1018000013447B617B691A68084B13407A6802F0C5
:10181000F8413A680A43134343F000427B691A6077
:1018200000BF1C37BD465DF8047B704700F0FF0326
:1018300080B485B000AF786039607B6860331A4649
:101840003B689B001344FB60FB681B6803F0F84394
:1018500018461437BD465DF8047B704780B487B0E6
:1018600000AFF860B9607A60FB6860331A46BB6805
:101870009B0013447B617B691B6823F000427B68FB
:101880001A437B691A6000BF1C37BD465DF8047BB4
:10189000704780B487B000AFF860B9607A60FB68C9
:1018A00060331A46BB689B0013447B617B691B68ED
:1018B00023F080727B681A437B691A6000BF1C3773
:1018C000BD465DF8047B704780B487B000AFF86018
:1018D000B9607A60FB6860331A46BB689B001344AA
:1018E0007B617B691B6823F000727B681A437B690C
:1018F0001A6000BF1C37BD465DF8047B704780B49A
:1019000083B000AF786039607B685B6923F0004288
:101910003B681A437B685A6100BF0C37BD465DF8CF
:10192000047B704780B483B000AF78607B68DB686D
:1019300003F44063002B01D1012300E0002318468B
:101940000C37BD465DF8047B704780B487B000AFAC
:10195000F860B9607A60FB6830331A46BB681B0ACE
:101960009B0003F00C0313447B617B691A68BB681E
:1019700003F01F031F2101FA03F3DB431A407B68C6
:101980009B0E03F01F01BB6803F01F0301FA03F372
:101990001A437B691A6000BF1C37BD465DF8047BA3
:1019A000704780B487B000AFF860B9607A60FB68B8
:1019B00014331A46BB685B0E9B0003F00403134408
:1019C0007B617B691A68BB681B0D03F01F0307214D
:1019D00001FA03F3DB431A40BB681B0D03F01F033E
:1019E000796801FA03F31A437B691A6000BF1C3758
:1019F000BD465DF8047B704780B485B000AFF860E9
:101A0000B9607A60FB68D3F8B020BB68C3F31203F7
:101A1000DB431A407B6803F018030849D940BB68D0
:101A20000B40C3F312031A43FB68C3F8B02000BF96
:101A30001437BD465DF8047B704700BFFFFF070009
:101A400080B483B000AF78607B689B6803F01F03AD
:101A500018460C37BD465DF8047B704780B483B0F0
:101A600000AF78607B689B6803F4604318460C37CE
:101A7000BD465DF8047B704780B483B000AF7860EA
:101A80007B689B6823F0204323F03F037A689360D0
:101A900000BF0C37BD465DF8047B704780B483B04F
:101AA00000AF78607B689B6803F00053B3F1005F80
:101AB00001D1012300E0002318460C37BD465DF834
:101AC000047B704780B483B000AF78607B689B680C
:101AD00023F0104323F03F0343F080527B689A6069
:101AE00000BF0C37BD465DF8047B704780B483B0FF
:101AF00000AF78607B689B6803F08053B3F1805F30
:101B000001D1012300E0002318460C37BD465DF8E3
:101B1000047B704780B483B000AF78607B689B68BB
:101B200023F0004323F03F0343F001027B689A60F7
:101B300000BF0C37BD465DF8047B704780B483B0AE
:101B400000AF78607B689B6823F0004323F03F037D
:101B500043F002027B689A6000BF0C37BD465DF817
:101B6000047B704780B483B000AF78607B689B686B
:101B700003F00103012B01D1012300E000231846EB
:101B80000C37BD465DF8047B704780B483B000AF6E
:101B900078607B689B6803F00203022B01D101236C
:101BA00000E0002318460C37BD465DF8047B704703
:101BB00080B483B000AF78607B689B6823F00043FB
:101BC00023F03F0343F004027B689A6000BF0C37A8
:101BD000BD465DF8047B704780B483B000AF786089
:101BE0007B689B6823F0004323F03F0343F010021F
:101BF0007B689A6000BF0C37BD465DF8047B704778
:101C000080B483B000AF78607B689B6803F0040306
:101C1000042B01D1012300E0002318460C37BD46F8
:101C20005DF8047B704780B483B000AF78607B6858
:101C30009B6823F0004323F03F0343F020027B68BE
:101C40009A6000BF0C37BD465DF8047B704780B4D6
:101C500083B000AF78607B689B6803F00803082BB3
:101C600001D1012300E0002318460C37BD465DF882
:101C7000047B704790B589B000AF78600023FB7794
:101C80000023FB607B68002B01D1012367E17B68A7
:101C90005B69002B7B68DB6D002B09D17868FFF74F
:101CA000FFFA7B6800221A667B68002283F85820BE
:101CB0007B681B681846FFF7F1FE0346002B04D033
:101CC0007B681B681846FFF7D7FE7B681B681846C1
:101CD000FFF70CFF0346002B15D17B681B681846E5
:101CE000FFF7F0FEA04B1B689B09A04AA2FB032351
:101CF0009B0901335B00FB6002E0FB68013BFB607A
:101D0000FB68002BF9D17B681B681846FFF7EEFED5
:101D10000346002B0DD17B68DB6D43F010027B681E
:101D2000DA657B681B6E43F001027B681A6601234B
:101D3000FB777B681B681846FFF762FF78617B685A
:101D4000DB6D03F01003002B40F000817B69002B5A
:101D500040F0FC807B68DB6D23F4817343F002026A
:101D60007B68DA657B681B681846FFF7FBFE034655
:101D7000002B11D14FF0A040FFF7F4FE04467C4841
:101D8000FFF7F0FE03462343002B05D17B685B6819
:101D900019467848FFF7F4FC7B685B7F5A037B6841
:101DA000DB6B1A437B68DB681A437B689B681A43CA
:101DB0007B6893F824301B041343BB617B6893F862
:101DC0002430012B06D17B689B6A013B5B04BA6916
:101DD0001343BB617B68DB6A002B09D07B68DB6A3D
:101DE00003F478727B681B6B1343BA691343BB61BE
:101DF0007B681B68DA68604B13407A681268B969BF
:101E00000B43D3607B681B681B6923F040617B68D0
:101E10005A6B7B681B680A431A617B681B6818460B
:101E2000FFF715FF38617B69002B6DD13B69002BF3
:101E30006AD17B681B7F9A037B6893F838305B001C
:101E40001343BB617B681B68DB6823F4804323F08A
:101E500002037A681268B9690B43D3607B681B6917
:101E6000002B17D07B681B681A697B681B6842F4DB
:101E700080321A617B681B68D3F8C03023F47F532B
:101E800023F03F037A6811697A6812680B43C2F83D
:101E9000C03013E07B681B681A697B681B6822F4FA
:101EA00080321A617B681B68D3F8C0307A68126888
:101EB00023F47F5323F03F03C2F8C0307B6893F8CC
:101EC0004030012B18D17B681B681B6923F4FF632A
:101ED00023F004037A68516C7A68926C11437A6833
:101EE000D26C11437A68126D0A431A437B681B68EF
:101EF00042F001021A6107E07B681B681A697B687F
:101F00001B6822F001021A617B685B69012B0CD10E
:101F10007B681B681B6B23F00F017B681B6A5A1ED2
:101F20007B681B680A431A6307E07B681B681A6BAF
:101F30007B681B6822F00F021A637B68DB6D23F05D
:101F4000030343F001027B68DA6507E07B68DB6D21
:101F500043F010027B68DA650123FB77FB7F1846AC
:101F60002437BD4690BD00BF00000020632D3E0514
:101F700000010050000300500740F0FF80B586B01C
:101F800000AF78605948FFF75BFD38617B681B68DC
:101F90001846FFF735FE0346002B40F09F807B6814
:101FA00093F85830012B01D102239AE07B6801227B
:101FB00083F85820786800F063FE0346FB75FB7DCC
:101FC000002B40F086807B68DB6D23F4706323F088
:101FD000010343F480727B68DA657B681B68444ABE
:101FE000934202D07B681B6801E04FF0A0437A68FF
:101FF0001268934202D03B69002B05D17B68DB6DF0
:1020000023F480127B68DA657B68DB6D03F4805310
:10201000B3F5805F06D17B681B6E23F006027B68F8
:102020001A6602E07B6800221A667B681B681C2225
:102030001A607B68002283F858207B681B682C4A52
:10204000934202D07B681B6801E04FF0A0437A689E
:102050001268934208D03B69002B05D03B69052BE1
:1020600002D03B69092B14D17B681B68DB6803F045
:102070000073002B07D07B68DB6D23F4405343F4DF
:1020800080527B68DA657B681B681846FFF790FD15
:1020900026E07B68DB6D43F480127B68DA657B6841
:1020A0001B68134A934202D07B681B6801E04FF023
:1020B000A043FB60FB68DB6803F00073002B0FD0CC
:1020C0007B68DB6D23F4405343F480527B68DA6510
:1020D00006E07B68002283F8582001E00223FB75AC
:1020E000FB7D18461837BD4680BD00BF0003005079
:1020F0000001005080B584B000AF78607B6893F831
:102100005830012B01D1022323E07B68012283F8A0
:1021100058200321786800F0F7FC0346FB73FB7B33
:10212000002B11D1786800F031FE0346FB73FB7B76
:10213000002B09D17B68DB6D23F4885323F0010366
:1021400043F001027B68DA657B68002283F858203F
:10215000FB7B18461037BD4680BD000080B588B0B7
:1021600000AF786039606748FFF76AFC78617B6888
:102170009B69082B02D10823FB612AE07B69002BB5
:1021800005D07B69052B02D07B69092B11D17B68B7
:102190001B68DB6803F00103002B07D07B68DB6D55
:1021A00043F020027B68DA650123A6E00423FB618B
:1021B0000FE05448FFF752FC0346002B07D07B6822
:1021C000DB6D43F020027B68DA65012395E0042390
:1021D000FB61FFF7A7FA386121E03B68B3F1FF3FED
:1021E0001DD0FFF79FFA02463B69D31A3A689A421C
:1021F00002D33B68002B12D17B681B681A68FB690D
:102200001340002B0BD17B68DB6D43F004027B682D
:10221000DA657B68002283F8582003236DE07B6831
:102220001B681A68FB691340002BD6D07B68DB6DF6
:1022300043F400727B68DA657B681B681846FFF719
:1022400071FB0346002B1CD07B685B7F002B18D1F1
:102250007B681B681B6803F00803082B11D17B689F
:10226000DB6D23F480727B68DA657B68DB6D03F4D9
:102270008053002B05D17B68DB6D43F001027B6846
:10228000DA657B681B68204A934202D07B681B6832
:1022900001E04FF0A0437A681268934208D07B694E
:1022A000002B05D07B69052B02D07B69092B04D15B
:1022B0007B681B68DB68BB610DE07B681B68124AAA
:1022C000934202D07B681B6801E04FF0A043FB60A3
:1022D000FB68DB68BB61FB69082B04D17B681B686A
:1022E00008221A6008E0BB6903F48043002B03D185
:1022F0007B681B680C221A60002318462037BD46F5
:1023000080BD00BF000300500001005080B483B0C6
:1023100000AF78607B681B681B6C18460C37BD46A5
:102320005DF8047B7047000080B5B6B000AF786000
:102330003960002387F8D7300023FB607B6893F86F
:102340005830012B01D10223C8E37B68012283F8B6
:1023500058207B681B681846FFF752FC0346002B89
:1023600040F0AD837B6818683B6859683B681B6820
:102370001A46FFF7EAFA7B681B681846FFF740FC2D
:10238000C7F8D0007B681B681846FFF760FCC7F8E9
:10239000CC00D7F8D030002B40F0D981D7F8CC3022
:1023A000002B40F0D4813B689B68B3F1004F0FD104
:1023B0007B6818683B681B6800221946FFF7F1FA32
:1023C0007B681B684FF000411846FFF798FA0EE053
:1023D0007B6818683B6819683B689B681A46FFF77A
:1023E000E0FA7B681B6800211846FFF788FA3B6813
:1023F0005A697B681B68DB68DB0803F003035B003A
:1024000002FA03F3C7F8C8303B681B69042B22D0DB
:102410007B6818683B6819693B681A68D7F8C83048
:10242000FFF7E2F97B6818683B6819693B689B69AC
:102430001A46FFF72EFA7B6818683B6819693B68F3
:102440001B7F012B02D14FF0007300E000231A46DE
:10245000FFF73AFA7BE17B681B6800211846FFF71B
:10246000E7F90346C3F31203002B0AD17B681B680C
:1024700000211846FFF7DCF903469B0E03F01F020C
:102480001EE07B681B6800211846FFF7D1F9034660
:10249000C7F8BC30D7F8BC3093FAA3F3C7F8B8300C
:1024A000D7F8B830C7F8C030D7F8C030002B01D10A
:1024B000202304E0D7F8C030B3FA83F3DBB21A4626
:1024C0003B681B68C3F31203002B05D13B681B68F4
:1024D0009B0E03F01F0318E03B681B68C7F8B03081
:1024E000D7F8B03093FAA3F3C7F8AC30D7F8AC30D4
:1024F000C7F8B430D7F8B430002B01D1202304E062
:10250000D7F8B430B3FA83F3DBB29A4206D17B68D2
:102510001B68002200211846FFF7A0F97B681B68A2
:1025200001211846FFF784F90346C3F31203002B79
:102530000AD17B681B6801211846FFF779F9034629
:102540009B0E03F01F021EE07B681B6801211846EA
:10255000FFF76EF90346C7F8A430D7F8A43093FA12
:10256000A3F3C7F8A030D7F8A030C7F8A830D7F841
:10257000A830002B01D1202304E0D7F8A830B3FA0B
:1025800083F3DBB21A463B681B68C3F31203002BCC
:1025900005D13B681B689B0E03F01F0318E03B68E6
:1025A0001B68C7F89830D7F8983093FAA3F3C7F8A8
:1025B0009430D7F89430C7F89C30D7F89C30002B73
:1025C00001D1202304E0D7F89C30B3FA83F3DBB2C7
:1025D0009A4206D17B681B68002201211846FFF74A
:1025E0003DF97B681B6802211846FFF721F9034675
:1025F000C3F31203002B0AD17B681B680221184623
:10260000FFF716F903469B0E03F01F021EE07B68DE
:102610001B6802211846FFF70BF90346C7F88C30F8
:10262000D7F88C3093FAA3F3C7F88830D7F88830FE
:10263000C7F89030D7F89030002B01D1202304E068
:10264000D7F89030B3FA83F3DBB21A463B681B68C5
:10265000C3F31203002B05D13B681B689B0E03F0EC
:102660001F0316E03B681B68C7F88030D7F880303E
:1026700093FAA3F3FB67FB6FC7F88430D7F8843075
:10268000002B01D1202304E0D7F88430B3FA83F380
:10269000DBB29A4206D17B681B68002202211846F1
:1026A000FFF7DCF87B681B6803211846FFF7C0F8CA
:1026B0000346C3F31203002B0AD17B681B68032176
:1026C0001846FFF7B5F803469B0E03F01F0217E00C
:1026D0007B681B6803211846FFF7AAF803467B674F
:1026E0007B6F93FAA3F33B673B6FBB67BB6F002B1A
:1026F00001D1202303E0BB6FB3FA83F3DBB21A46A8
:102700003B681B68C3F31203002B05D13B681B68B1
:102710009B0E03F01F0311E03B681B68BB66BB6E9A
:1027200093FAA3F37B667B6EFB66FB6E002B01D1F5
:10273000202303E0FB6EB3FA83F3DBB29A4206D1A7
:102740007B681B68002203211846FFF787F87B6827
:102750001B681846FFF706FA0346002B40F040813D
:102760007B6818683B6819683B68DB681A46FFF7A6
:1027700043F93B68DB688F4A934240F031817B68C4
:1027800018683B681B68C3F31203002B0BD13B682E
:102790001B689B0E013303F01F03092B94BF012319
:1027A0000023DBB219E03B681B68FB65FB6D93FA05
:1027B000A3F3BB65BB6D3B663B6E002B01D12023B1
:1027C00003E03B6EB3FA83F3DBB2013303F01F0384
:1027D000092B94BF01230023DBB2002B79D03B6887
:1027E0001B68C3F31203002B07D13B681B689B0EC9
:1027F00001339B0603F0F84215E03B681B683B651C
:102800003B6D93FAA3F3FB64FB6C7B657B6D002B44
:1028100001D1202303E07B6DB3FA83F3DBB20133F4
:102820009B0603F0F8423B681B68C3F31203002BBE
:1028300009D13B681B689B0E013303F01F03012184
:1028400001FA03F317E03B681B687B647B6C93FA27
:10285000A3F33B643B6CBB64BB6C002B01D1202316
:1028600003E0BB6CB3FA83F3DBB2013303F01F0365
:10287000012101FA03F342EA03013B681B68C3F339
:102880001203002B0AD13B681B689B0E013303F037
:102890001F0213465B0013441B0518E03B681B68CE
:1028A000BB63BB6B93FAA3F37B637B6BFB63FB6B39
:1028B000002B01D1202303E0FB6BB3FA83F3DBB2DF
:1028C000013303F01F0213465B0013441B050B4347
:1028D00081E03B681B68C3F31203002B07D13B6800
:1028E0001B689B0E01339B0603F0F84215E03B6822
:1028F0001B68FB62FB6A93FAA3F3BB62BB6A3B6390
:102900003B6B002B01D1202303E03B6BB3FA83F335
:10291000DBB201339B0603F0F8423B681B68C3F34C
:102920001203002B09D13B681B689B0E013303F097
:102930001F03012101FA03F317E03B681B683B62A8
:102940003B6A93FAA3F3FB61FB697B627B6A002B12
:1029500001D1202303E07B6AB3FA83F3DBB20133B6
:1029600003F01F03012101FA03F342EA03013B686C
:102970001B68C3F31203002B0DD13B681B689B0E31
:10298000013303F01F0213465B0013441E3B1B057B
:1029900043F000731EE03B681B687B617B6993FA20
:1029A000A3F33B613B69BB61BB69002B04D12023CE
:1029B00006E000BF00007F40BB69B3FA83F3DBB2DF
:1029C000013303F01F0213465B0013441E3B1B053B
:1029D00043F000730B433A6892681946FEF7E1FF33
:1029E0003B681A683F4B1340002B71D03E48FEF7FE
:1029F000EDFEC7F8C4003B681B683C4A934204D014
:102A00003B681B683A4A934227D1D7F8C43003F495
:102A10000003002B21D17B681B68B3F1A04F57D175
:102A2000D7F8C43043F4000319462F48FEF7BBFE25
:102A3000304B1B689B09304AA2FB03239B095A1C9D
:102A400013465B0013449B00FB6002E0FB68013B04
:102A5000FB60FB68002BF9D13AE03B681B68274A12
:102A6000934213D1D7F8C43003F08073002B0DD1FB
:102A70007B681B68224A93422AD0D7F8C43043F0BF
:102A8000807319461848FEF78EFE21E03B681B68EC
:102A90001C4A93421CD1D7F8C43003F48003002BA6
:102AA00016D17B681B68164A934211D0D7F8C43000
:102AB00043F4800319460C48FEF775FE08E07B6876
:102AC000DB6D43F020027B68DA65012387F8D7309D
:102AD0007B68002283F8582097F8D7301846D837FB
:102AE000BD4680BD0000088000030050000021C3E7
:102AF0001000C09000000020632D3E05000052C76A
:102B000000010050000084CB80B588B000AF786031
:102B100039600023FB613B68BB617B681B6818461A
:102B2000FFF76EF838617B681B681846FFF78FF86F
:102B3000F8603B69002B03D1FB68002B00F0988004
:102B40007B681B68DB6803F00073002B2AD07B686E
:102B50005B7F012B26D17B681B7F012B22D10123B8
:102B6000BB6114E0FB69454A93420DD97B68DB6D7C
:102B700043F010027B68DA657B681B6E43F001024C
:102B80007B681A66012374E0FB690133FB617B6893
:102B90001B681B6803F04003402BE3D17B681B6874
:102BA00040221A60BB69022B14D07B681B68184650
:102BB000FFF726F80346002B0CD07B681B681846ED
:102BC000FEF7E3FF0346002B04D17B681B68184621
:102BD000FFF702F8BB69012B14D07B681B6818460D
:102BE000FFF735F80346002B0CD07B681B681846AE
:102BF000FEF7CBFF0346002B04D17B681B68184609
:102C0000FFF711F8BB69022B05D0BB69032B05D177
:102C10000C237B6105E008237B6102E004237B61D8
:102C200000BFFEF77FFDB8601BE0FEF77BFD0246AC
:102C3000BB68D31A052B14D97B681B689A687B691B
:102C40001340002B0DD07B68DB6D43F010027B68D6
:102C5000DA657B681B6E43F001027B681A6601230C
:102C600007E07B681B689A687B691340002BDCD106
:102C7000002318462037BD4680BD00BFFFFF3FA39D
:102C800080B584B000AF78600023BB607B681B68B0
:102C90001846FEF767FF0346002B69D17B681B6867
:102CA0009A68364B1340002B0DD07B68DB6D43F0E8
:102CB00010027B68DA657B681B6E43F001027B685B
:102CC0001A66012355E07B681B681846FEF722FF51
:102CD0002B48FEF77BFD034603F40003002B13D0C3
:102CE000284B1B689B09284AA2FB03239B095A1CFB
:102CF00013465B0013449B00BB6002E0BB68013BD2
:102D0000BB60BB68002BF9D1FEF70CFDF86028E032
:102D10007B681B681846FEF725FF0346002B04D18D
:102D20007B681B681846FEF7F5FEFEF7FBFC0246C3
:102D3000FB68D31A022B14D97B681B681B6803F04D
:102D40000103012B0DD07B68DB6D43F010027B6823
:102D5000DA657B681B6E43F001027B681A6601230B
:102D600007E07B681B681B6803F00103012BCFD1D0
:102D7000002318461037BD4680BD00BF3F000080CD
:102D80000003005000000020632D3E0580B584B094
:102D900000AF78607B681B681846FEF7F6FEF860A7
:102DA0007B681B681846FEF7DDFE0346002B47D004
:102DB000FB68002B44D17B681B689B6803F00D0304
:102DC000012B0CD17B681B681846FEF7B7FE7B68A9
:102DD0001B6803221A60FEF7A5FCB86029E07B6837
:102DE000DB6D43F010027B68DA657B681B6E43F095
:102DF00001027B681A66012323E0FEF793FC02467A
:102E0000BB68D31A022B14D97B681B689B6803F03C
:102E10000103002B0DD07B68DB6D43F010027B6853
:102E2000DA657B681B6E43F001027B681A6601233A
:102E300007E07B681B689B6803F00103002BDCD173
:102E4000002318461037BD4680BD80B483B000AF64
:102E500078607B689B6803F00103012B01D101239B
:102E600000E0002318460C37BD465DF8047B704730
:102E700080B483B000AF78607B689B6803F0040384
:102E8000042B01D1012300E0002318460C37BD4676
:102E90005DF8047B7047000090B5A1B000AF78608A
:102EA0003960002387F87F307B6893F85830012B16
:102EB00001D102238BE07B68012283F85820002394
:102EC0007B660023BB667B681B68B3F1A04F02D111
:102ED000414BBB6001E00023BB60BB68002B0BD102
:102EE0007B68DB6D43F020027B68DA657B6800223B
:102EF00083F8582001236AE0BB681846FFF7B8FF43
:102F0000B8677B681B681846FFF7B2FF0346002BC3
:102F10004CD1BB6F002B49D1304B7B673B681B68A2
:102F2000002B28D07B6F9B6823F460423B68596874
:102F30007B6893F838305B030B431A437B6F9A60CE
:102F40004FF0A040FFF781FF04462348FFF77DFFC5
:102F500003462343002B33D17B6F9B6823F47163BB
:102F600023F00F033A6811683A6892680A431A43DB
:102F70007B6F9A6024E07B6F9B6823F460427B6FD9
:102F80009A604FF0A040FFF760FF04461248FFF739
:102F90005CFF03462343002B12D17B6F9B6823F415
:102FA000716323F00F037A6F936009E07B68DB6D38
:102FB00043F020027B68DA65012387F87F3000E068
:102FC00000BF7B68002283F8582097F87F301846AE
:102FD0008437BD4690BD00BF000100500003005083
:102FE00080B485B000AF78607B6803F00703FB60B6
:102FF0000C4BDB68BB60BA684FF6FF031340BB6045
:10300000FB681A02BB68134343F0BF6343F4003309
:10301000BB60044ABB68D36000BF1437BD465DF88F
:10302000047B704700ED00E080B400AF044BDB6828
:103030001B0A03F007031846BD465DF8047B704782
:1030400000ED00E080B483B000AF03463960FB714F
:1030500097F90730002B0ADB3B68DAB20C4997F985
:1030600007301201D2B20B4483F800230AE03B6818
:10307000DAB20849FB7903F00F03043B1201D2B224
:103080000B441A7600BF0C37BD465DF8047B7047D1
:1030900000E100E000ED00E080B489B000AFF8602E
:1030A000B9607A60FB6803F00703FB61FB69C3F159
:1030B0000703042B28BF0423BB61FB690433062BE1
:1030C00002D9FB69033B00E000237B614FF0FF3234
:1030D000BB6902FA03F3DA43BB681A407B699A4082
:1030E0004FF0FF317B6901FA03F3D9437B680B4052
:1030F000134318462437BD465DF8047B7047000033
:1031000080B582B000AF78607B68013BB3F1807F0F
:1031100001D301230FE00A4A7B68013B53600F2172
:103120004FF0FF30FFF78EFF054B00229A60044BF3
:1031300007221A60002318460837BD4680BD00BF2D
:1031400010E000E080B582B000AF78607868FFF7EB
:1031500047FF00BF0837BD4680BD80B586B000AFD1
:103160000346B9607A60FB73FFF75EFF78617A68A7
:10317000B9687869FFF790FF024697F90F3011465A
:103180001846FFF75FFF00BF1837BD4680BD80B50A
:1031900082B000AF78607868FFF7B2FF0346184648
:1031A0000837BD4680BD000080B487B000AF7860AE
:1031B000396000237B615AE13B681A6801217B6911
:1031C00001FA03F31340FB60FB68002B00F04C8115
:1031D0003B685B6803F00303012B05D03B685B6829
:1031E00003F00303022B30D17B689B683B617B6952
:1031F0005B00032202FA03F3DB433A6913403B61AD
:103200003B68DA687B695B0002FA03F33A691343AF
:103210003B617B683A699A607B685B683B6101222D
:103220007B6902FA03F3DB433A6913403B613B6875
:103230005B681B0903F001027B6902FA03F33A6938
:1032400013433B617B683A695A603B685B6803F0F3
:103250000303032B17D07B68DB683B617B695B0052
:10326000032202FA03F3DB433A6913403B613B68F4
:103270009A687B695B0002FA03F33A6913433B6186
:103280007B683A69DA603B685B6803F00303022BF2
:1032900023D17B69DA087B68083253F822303B611E
:1032A0007B6903F007039B000F2202FA03F3DB4361
:1032B0003A6913403B613B681A697B6903F0070375
:1032C0009B0002FA03F33A6913433B617B69DA0816
:1032D0007B680832396943F822107B681B683B61C0
:1032E0007B695B00032202FA03F3DB433A69134074
:1032F0003B613B685B6803F003027B695B0002FA99
:1033000003F33A6913433B617B683A691A603B688F
:103310005B6803F44033002B00F0A6805B4B1B6E10
:103320005A4A43F001031366584B1B6E03F0010326
:10333000BB60BB68564A7B699B08023352F8233056
:103340003B617B6903F003039B000F2202FA03F346
:10335000DB433A6913403B617B68B3F1904F1FD068
:103360007B684C4A934219D07B684B4A934213D0F6
:103370007B684A4A93420DD07B68494A934207D002
:103380007B68484A934201D105230AE0062308E0FE
:10339000042306E0032304E0022302E0012300E00B
:1033A00000237A6902F00302920093403A691343C2
:1033B0003B6137497B699B0802333A6941F8232016
:1033C000394B9B683B61FB68DB433A6913403B61C7
:1033D0003B685B6803F48013002B03D03A69FB68F9
:1033E00013433B61304A3B6993602F4BDB683B6181
:1033F000FB68DB433A6913403B613B685B6803F45D
:103400000013002B03D03A69FB6813433B61264A43
:103410003B69D360244B5B683B61FB68DB433A69E3
:1034200013403B613B685B6803F40033002B03D01F
:103430003A69FB6813433B611B4A3B6953601A4B73
:103440001B683B61FB68DB433A6913403B613B68A7
:103450005B6803F48033002B03D03A69FB681343A5
:103460003B61114A3B6913607B6901337B613B68B7
:103470001A687B6922FA03F3002B7FF49DAE00BF2C
:1034800000BF1C37BD465DF8047B7047001002404A
:10349000000001400004004800080048000C0048FB
:1034A00000100048001400480004014080B485B0BA
:1034B00000AF78607B68002B41D14B4B1B6803F455
:1034C000C063B3F5806F31D1474BD3F88030464AA3
:1034D00023F48073C2F88030434B1B6823F4C0632D
:1034E000414A43F400731360404B1B68322202FBD5
:1034F00003F33F4AA2FB03239B0C0133FB6002E072
:10350000FB68013BFB60384B5B6903F48063B3F5F8
:10351000806F02D1FB68002BF2D1334B5B6903F45F
:103520008063B3F5806F58D1032357E02E4BD3F857
:1035300080302D4A23F48073C2F880304DE07B68E0
:10354000B3F5007F41D1284B1B6803F4C063B3F58A
:10355000806F31D1244BD3F88030234A43F48073F9
:10356000C2F88030204B1B6823F4C0631E4A43F42A
:10357000007313601D4B1B68322202FB03F31C4ACD
:10358000A2FB03239B0C0133FB6002E0FB68013BC1
:10359000FB60154B5B6903F48063B3F5806F02D168
:1035A000FB68002BF2D1104B5B6903F48063B3F529
:1035B000806F12D1032311E00B4BD3F880300A4AFD
:1035C00043F48073C2F8803007E0074B1B6823F494
:1035D000C063054A43F48063136000231846143720
:1035E000BD465DF8047B704700700040000000207D
:1035F00083DE1B4380B400AF054B9B68044A43F451
:103600008043936000BFBD465DF8047B704700BFF8
:103610000070004080B588B000AF78607B68002BF8
:1036200001D10123FEE27B681B6803F00103002B3C
:1036300075D0974B9B6803F00C03BB61944BDB6820
:1036400003F003037B61BB690C2B02D17B69032B65
:1036500002D0BB69082B0BD18D4B1B6803F40033E0
:10366000002B5BD07B685B68002B57D10123D9E22C
:103670007B685B68B3F5803F06D1854B1B68844A45
:1036800043F4803313601DE07B685B68B3F5A02FC3
:103690000CD17F4B1B687E4A43F4802313607C4B24
:1036A0001B687B4A43F4803313600BE0784B1B6844
:1036B000774A23F480331360754B1B68744A23F4F4
:1036C000802313607B685B68002B13D0FEF72AF819
:1036D000386108E0FEF726F802463B69D31A642BEE
:1036E00001D903239EE26A4B1B6803F40033002BCD
:1036F000F0D014E0FEF716F8386108E0FEF712F893
:1037000002463B69D31A642B01D903238AE2604B3A
:103710001B6803F40033002BF0D100E000BF7B688E
:103720001B6803F00203002B75D0594B9B6803F014
:103730000C03BB61564BDB6803F003037B61BB6981
:103740000C2B02D17B69022B02D0BB69042B1FD149
:103750004F4B1B6803F48063002B05D07B68DB684C
:10376000002B01D101235DE2494B5B6823F0FE424F
:103770007B681B691B06464913434B60454B1B681E
:103780001846FDF783FF0346002B43D0012349E28F
:103790007B68DB68002B23D03D4B1B683C4A43F41D
:1037A00080731360FDF7BEFF386108E0FDF7BAFFD4
:1037B00002463B69D31A022B01D9032332E2344B70
:1037C0001B6803F48063002BF0D0314B5B6823F05F
:1037D000FE427B681B691B062D4913434B601AE0B0
:1037E0002B4B1B682A4A23F480731360FDF79AFF62
:1037F000386108E0FDF796FF02463B69D31A022BB9
:1038000001D903230EE2224B1B6803F48063002BD3
:10381000F0D100E000BF7B681B6803F00803002BB9
:1038200041D07B685B69002B1CD0194BD3F89430D6
:10383000174A43F00103C2F89430FDF773FF386173
:1038400008E0FDF76FFF02463B69D31A022B01D94E
:103850000323E7E10E4BD3F8943003F00203002B6F
:10386000EFD020E00A4BD3F89430094A23F001034B
:10387000C2F89430FDF756FF38610DE0FDF752FFB6
:1038800002463B69D31A022B06D90323CAE100BFC3
:1038900000100240040000208C4BD3F8943003F059
:1038A0000203002BEAD17B681B6803F00403002BA2
:1038B00000F0A6800023FB77844B9B6D03F08053C0
:1038C000002B01D1012300E00023002B0DD07F4B02
:1038D0009B6D7E4A43F0805393657C4B9B6D03F058
:1038E0008053FB60FB680123FB77794B1B6803F473
:1038F0008073002B18D1764B1B68754A43F4807394
:103900001360FDF70FFF386108E0FDF70BFF02467B
:103910003B69D31A022B01D9032383E16C4B1B684B
:1039200003F48073002BF0D07B689B68012B08D1D7
:10393000664BD3F89030654A43F00103C2F89030EB
:1039400024E07B689B68052B10D1604BD3F8903046
:103950005E4A43F00403C2F890305C4BD3F89030D9
:103960005A4A43F00103C2F890300FE0574BD3F8A6
:103970009030564A23F00103C2F89030534BD3F8ED
:103980009030524A23F00403C2F890307B689B6861
:10399000002B16D0FDF7C6FE38610AE0FDF7C2FE27
:1039A00002463B69D31A41F28832934201D903237C
:1039B00038E1464BD3F8903003F00203002BEDD0F2
:1039C00015E0FDF7AFFE38610AE0FDF7ABFE0246F9
:1039D0003B69D31A41F28832934201D9032321E192
:1039E0003A4BD3F8903003F00203002BEDD1FB7F6C
:1039F000012B05D1354B9B6D344A23F080539365E1
:103A00007B681B6803F02003002B3CD07B689B691C
:103A1000002B1CD02D4BD3F898302C4A43F00103D7
:103A2000C2F89830FDF77EFE386108E0FDF77AFEB7
:103A300002463B69D31A022B01D90323F2E0234B40
:103A4000D3F8983003F00203002BEFD01BE01F4B9C
:103A5000D3F898301D4A23F00103C2F89830FDF7DF
:103A600061FE386108E0FDF75DFE02463B69D31A4E
:103A7000022B01D90323D5E0144BD3F8983003F07F
:103A80000203002BEFD17B68DB69002B00F0C980BB
:103A90000E4B9B6803F00C030C2B00F083807B68BB
:103AA000DB69022B5ED1094B1B68084A23F0807347
:103AB0001360FDF737FE38610CE0FDF733FE024678
:103AC0003B69D31A022B05D90323ABE00010024057
:103AD00000700040554B1B6803F00073002BECD1C5
:103AE000524BDA68524B13407A68116A7A68526A0C
:103AF000013A120111437A68926A120211437A68FC
:103B0000126B5208013A520511437A68526B5208FF
:103B1000013A520611437A68D26AD2060A434349EF
:103B20001343CB60414B1B68404A43F080731360E2
:103B30003E4BDB683D4A43F08073D360FDF7F2FDF6
:103B4000386108E0FDF7EEFD02463B69D31A022B0F
:103B500001D9032366E0354B1B6803F00073002B8B
:103B6000F0D05EE0314B1B68304A23F08073136065
:103B7000FDF7D8FD386108E0FDF7D4FD02463B694A
:103B8000D31A022B01D903234CE0284B1B6803F006
:103B90000073002BF0D1254BDA682449254B1340E4
:103BA000CB603EE07B68DB69012B01D1012339E06A
:103BB0001E4BDB687B617B6903F003027B681B6A39
:103BC0009A422CD17B6903F0F0027B685B6A013B6F
:103BD0001B019A4223D17B6903F4FE427B689B6AF6
:103BE0001B029A421BD17B6903F078427B68DB6A37
:103BF000DB069A4213D17B6903F4C0027B681B6B1E
:103C00005B08013B5B059A4209D17B6903F0C06206
:103C10007B685B6B5B08013B5B069A4201D001232A
:103C200000E0002318462037BD4680BD001002404A
:103C30000C809F01FCFFEEFE80B586B000AF78607F
:103C4000396000237B617B68002B01D101231EE1D9
:103C5000914B1B6803F00F033A689A4210D98E4BC0
:103C60001B6823F00F028C493B6813430B608A4B9F
:103C70001B6803F00F033A689A4201D0012306E162
:103C80007B681B6803F00103002B73D07B685B68C3
:103C9000032B29D1814B1B6803F00073002B01D14A
:103CA0000123F4E000F09EF938613B697C4A9342BD
:103CB0003FD97A4B9B6803F0F003002B09D07B6857
:103CC0001B6803F00203002B33D07B689B68002B3A
:103CD0002FD1724B9B6823F0F003704A43F08003AE
:103CE000936080237B6124E07B685B68022B07D1B3
:103CF0006A4B1B6803F40033002B09D10123C6E093
:103D0000664B1B6803F48063002B01D10123BEE0E6
:103D100000F0CEF838613B69614A934209D95F4BA4
:103D20009B6823F0F0035D4A43F080039360802397
:103D30007B615A4B9B6823F003027B685B685749A1
:103D400013438B60FDF7EEFCF8600AE0FDF7EAFC38
:103D50000246FB68D31A41F28832934201D9032309
:103D600095E04E4B9B6803F00C027B685B689B0000
:103D70009A42EBD17B681B6803F00203002B23D02F
:103D80007B681B6803F00403002B05D0434B9B6842
:103D9000424A43F4E06393607B681B6803F00803C6
:103DA000002B07D03D4B9B6823F47C533B4A43F4E4
:103DB000E0639360394B9B6823F0F0027B689B685B
:103DC000364913438B6008E07B69802B05D1334B68
:103DD0009B68324A23F0F00393602F4B1B6803F07B
:103DE0000F033A689A421DD22B4B1B6823F00F0237
:103DF00029493B6813430B60FDF794FCF8600AE027
:103E0000FDF790FC0246FB68D31A41F288329342D8
:103E100001D903233BE0204B1B6803F00F033A68F2
:103E20009A42EDD17B681B6803F00403002B08D095
:103E30001A4B9B6823F4E0627B68DB6817491343E5
:103E40008B607B681B6803F00803002B09D0134BC1
:103E50009B6823F460527B681B69DB000F491343A6
:103E60008B6000F025F802460C4B9B681B0903F0A1
:103E70000F030C49CB5C03F01F0322FA03F30A4A39
:103E800013600A4B1B681846FDF700FC03461846F2
:103E90001837BD4680BD00BF002002400010024020
:103EA00000B4C404EC7E00080000002004000020E0
:103EB00080B487B000AF2C4B9B6803F00C03042B3D
:103EC00002D12A4B3B6147E0274B9B6803F00C0370
:103ED000082B02D1264B3B613EE0234B9B6803F04D
:103EE0000C030C2B36D1204BDB6803F00303FB6083
:103EF0001D4BDB681B0903F00F030133BB60FB683C
:103F0000032B0CD11A4ABB68B2FBF3F3164AD268F2
:103F1000120A02F07F0202FB03F37B610CE0134AFA
:103F2000BB68B2FBF3F3104AD268120A02F07F02B8
:103F300002FB03F37B6100BF0B4BDB685B0E03F0FE
:103F4000030301335B007B607A697B68B2FBF3F3A8
:103F50003B6101E000233B613B6918461C37BD46CD
:103F60005DF8047B704700BF001002400024F4009D
:103F700000127A0080B400AF034B1B681846BD46A0
:103F80005DF8047B704700BF0000002080B500AFE3
:103F9000FFF7F0FF0246064B9B681B0A03F007037E
:103FA0000449CB5C03F01F0322FA03F3184680BDDB
:103FB00000100240FC7E000880B500AFFFF7DAFF7A
:103FC0000246064B9B68DB0A03F007030449CB5CFF
:103FD00003F01F0322FA03F3184680BD00100240CD
:103FE000FC7E000880B487B000AF1E4BDB6803F096
:103FF00003033B611B4BDB681B0903F00F03013319
:10400000FB603B69032B0CD1174AFB68B2FBF3F34F
:10401000144AD268120A02F07F0202FB03F37B61AA
:104020000CE0124AFB68B2FBF3F30E4AD268120AA4
:1040300002F07F0202FB03F37B6100BF094BDB68E8
:104040005B0E03F0030301335B00BB607A69BB685E
:10405000B2FBF3F37B607B6818461C37BD465DF806
:10406000047B70470010024000127A000024F40024
:1040700080B586B000AF78600023FB740023BB746A
:104080007B681B6803F40023002B00F0988000235A
:104090007B74434B9B6D03F08053002B0DD1404B41
:1040A0009B6D3F4A43F0805393653D4B9B6D03F0FE
:1040B0008053BB60BB6801237B743A4B1B68394A51
:1040C00043F480731360FDF72DFBF86009E0FDF702
:1040D00029FB0246FB68D31A022B02D90323FB7487
:1040E00005E0304B1B6803F48073002BEFD0FB7CA2
:1040F000002B59D12A4BD3F8903003F440737B61E5
:104100007B69002B1ED07B681B6C7A699A4219D0A0
:10411000234BD3F8903023F440737B61204BD3F8CA
:1041200090301F4A43F48033C2F890301C4BD3F8D0
:1041300090301B4A23F48033C2F89030184A7B69D0
:10414000C2F890307B6903F00103002B16D0FDF715
:10415000E9FAF8600BE0FDF7E5FA0246FB68D31ACE
:1041600041F28832934202D90323FB7406E00C4BE0
:10417000D3F8903003F00203002BECD0FB7C002B33
:104180000BD1074BD3F8903023F440727B681B6C43
:1041900003491343C1F8903008E0FB7CBB7405E091
:1041A0000010024000700040FB7CBB747B7C012B44
:1041B00005D1A64B9B6DA54A23F0805393657B6880
:1041C0001B6803F00103002B0AD0A04BD3F8883002
:1041D00023F003027B685B689C491343C1F8883075
:1041E0007B681B6803F00203002B0AD0974BD3F8BF
:1041F000883023F00C027B689B6894491343C1F814
:1042000088307B681B6803F00403002B0AD08F4BB7
:10421000D3F8883023F030027B68DB688B49134386
:10422000C1F888307B681B6803F00803002B0AD0B4
:10423000864BD3F8883023F0C0027B681B69834922
:104240001343C1F888307B681B6803F02003002B00
:104250000AD07E4BD3F8883023F440627B685B69D8
:104260007A491343C1F888307B681B6803F0400328
:10427000002B0AD0754BD3F8883023F440527B686A
:104280009B6972491343C1F888307B681B6803F04F
:104290008003002B0AD06D4BD3F8883023F44042C2
:1042A0007B68DB6969491343C1F888307B681B6808
:1042B00003F48073002B0AD0644BD3F8883023F4C6
:1042C00040327B681B6A61491343C1F888307B68C0
:1042D0001B6803F40073002B0AD05C4BD3F88830C2
:1042E00023F440227B685B6A58491343C1F8883045
:1042F0007B681B6803F48063002B15D0534BD3F805
:10430000883023F440127B689B6A50491343C1F8FC
:1043100088307B689B6AB3F5801F05D14B4BDB6807
:104320004A4A43F48013D3607B681B6803F400633C
:10433000002B15D0454BD3F8883023F440027B681E
:10434000DB6A42491343C1F888307B68DB6AB3F506
:10435000800F05D13D4BDB683C4A43F48013D360AA
:104360007B681B6803F48053002B15D0374BD3F8C0
:10437000883023F040727B681B6B34491343C1F8CB
:1043800088307B681B6BB3F1807F05D12F4BDB68D6
:104390002E4A43F48013D3607B681B6803F40053F8
:1043A000002B15D0294BD3F8883023F040627B686E
:1043B0005B6B26491343C1F888307B685B6BB3F1B4
:1043C000006F05D1214BDB68204A43F48013D36092
:1043D0007B681B6803F48043002B15D01B4BD3F87C
:1043E000883023F040627B689B6B18491343C1F807
:1043F00088307B689B6BB3F1006F05D1134BDB6892
:10440000124A43F48013D3607B681B6803F40043B3
:10441000002B15D00D4BD3F8883023F040527B6829
:10442000DB6B0A491343C1F888307B68DB6BB3F15F
:10443000805F05D1054BDB68044A43F48033D360C9
:10444000BB7C18461837BD4680BD00BF0010024037
:1044500080B582B000AF78607B68002B01D101236A
:1044600042E07B68D3F88830002B06D17B680022BD
:1044700083F884207868FCF767FF7B682422C3F800
:1044800088207B681B681A687B681B6822F0010221
:104490001A607B689B6A002B02D0786800F082FB70
:1044A000786800F0B3F80346012B01D101231BE02B
:1044B0007B681B685A687B681B6822F490425A60CC
:1044C0007B681B689A687B681B6822F02A029A60E6
:1044D0007B681B681A687B681B6842F001021A60DF
:1044E000786800F001FC034618460837BD4680BDD9
:1044F00080B58AB002AFF860B9603B601346FB80BC
:10450000FB68D3F88830202B7BD1BB68002B02D00E
:10451000FB88002B01D1012374E0FB680022C3F863
:104520009020FB682122C3F88820FDF7FBF8786112
:10453000FB68FA88A3F85420FB68FA88A3F8562091
:10454000FB689B68B3F5805F08D1FB681B69002B93
:1045500004D10023FB61BB68BB6103E0BB68FB6166
:104560000023BB6130E03B6800937B69002280211F
:10457000F86800F063FC0346002B05D0FB6820229E
:10458000C3F8882003233DE0FB69002B0BD1BB69F6
:104590001B881A46FB681B68C2F308029A62BB6953
:1045A0000233BB6107E0FB691A78FB681B689A62FB
:1045B000FB690133FB61FB68B3F856309BB2013BEA
:1045C0009AB2FB68A3F85620FB68B3F856309BB24A
:1045D000002BC8D13B6800937B6900224021F8681A
:1045E00000F02CFC0346002B05D0FB682022C3F80A
:1045F0008820032306E0FB682022C3F888200023DC
:1046000000E0022318462037BD4680BD2DE9B04F9B
:104610008CB000AF7861002387F82A307B699A68F4
:104620007B691B691A437B695B691A437B69DB6998
:104630001343FB627B691B681A68AB4B13407A69B2
:104640001268F96A0B4313607B691B685B6823F48B
:1046500040517B69DA687B691B680A435A607B6951
:104660009B69FB627B691B68A04A934204D07B690B
:104670001B6AFA6A1343FB627B691B689B6823F021
:104680006E4323F430637A691268F96A0B439360CE
:104690007B691B68DB6A23F00F017B695A6A7B69BF
:1046A0001B680A43DA627B691B68914A934225D1F1
:1046B000904BD3F8883003F00303032B1AD801A2E0
:1046C00052F823F0D5460008E5460008DD4600080C
:1046D000ED460008012387F82B30D6E0022387F847
:1046E0002B30D2E0042387F82B30CEE0082387F864
:1046F0002B30CAE0102387F82B30C6E07B691B689B
:104700007D4A934238D17B4BD3F8883003F00C03B9
:104710000C2B2DD801A252F823F000BF51470008FE
:104720007147000871470008714700086147000899
:104730007147000871470008714700085947000891
:104740007147000871470008714700086947000871
:10475000002387F82B3098E0022387F82B3094E071
:10476000042387F82B3090E0082387F82B308CE067
:10477000102387F82B3088E07B691B685F4A9342DF
:1047800025D15C4BD3F8883003F03003302B16D0A2
:10479000302B18D8202B0AD0202B14D8002B02D075
:1047A000102B08D00FE0002387F82B306DE0022398
:1047B00087F82B3069E0042387F82B3065E0082365
:1047C00087F82B3061E0102387F82B305DE07B69A0
:1047D0001B684B4A934225D1464BD3F8883003F0EF
:1047E000C003C02B16D0C02B18D8802B0AD0802B2A
:1047F00014D8002B02D0402B08D00FE0002387F8FC
:104800002B3042E0022387F82B303EE0042387F868
:104810002B303AE0082387F82B3036E0102387F856
:104820002B3032E07B691B68304A93422AD1314BEE
:10483000D3F8883003F44063B3F5406F1AD0B3F572
:10484000406F1BD8B3F5006F0CD0B3F5006F15D8CF
:10485000002B03D0B3F5806F08D00FE0002387F85A
:104860002B3012E0022387F82B300EE0042387F868
:104870002B300AE0082387F82B3006E0102387F856
:104880002B3002E0102387F82B307B691B68174A16
:10489000934240F0A88097F82B30082B34D801A21F
:1048A00052F823F0C948000809490008D148000817
:1048B00009490008D74800080949000809490008C3
:1048C00009490008DF480008FFF760FB786221E033
:1048D0000C4B7B621EE0FFF7EBFA78621AE04FF4B4
:1048E00000437B6216E000BFF369FFCF0080004009
:1048F00000380140001002400044004000480040E1
:10490000004C00400024F40000237B62012387F860
:104910002A3000BF7B6A002B00F02A817B695B6A2A
:104920009E4A32F813301A467B6AB3FBF2F3BB613E
:104930007B695A6813465B001344BA699A4205D3EF
:104940007B695B681B03BA699A4203D9012387F824
:104950002A300DE17B6A0022BB60FA607B695B6AEA
:104960008E4A32F813309BB200223B607A60D7E95E
:104970000023D7E90201FCF73FF902460B46104637
:1049800019464FF000024FF000030B0243EA106398
:10499000020279694968490800200C46054612EB75
:1049A000040843EB05097B695B6800229A4693463D
:1049B00052465B4640464946FCF71EF902460B4606
:1049C00013463B623B6AB3F5407F08D33B6AB3F5BD
:1049D000801F04D27B691B683A6ADA60C8E0012351
:1049E00087F82A30C4E07B69DB69B3F5004F67D1F3
:1049F00097F82B30082B28D801A252F823F000BFDB
:104A0000254A00082D4A0008354A00084B4A00088C
:104A10003B4A00084B4A00084B4A00084B4A000832
:104A2000434A0008FFF7B2FA786214E0FFF7C4FACD
:104A3000786210E05A4B7B620DE0FFF739FA78623A
:104A400009E04FF400437B6205E000237B62012311
:104A500087F82A3000BF7B6A002B00F089807B69D1
:104A60005B6A4E4A32F813301A467B6AB3FBF2F3A4
:104A70005A007B695B685B081A447B695B68B2FB20
:104A8000F3F33B623B6A0F2B16D93B6AB3F5803FC9
:104A900012D23B6A9BB223F00F03FB833B6A5B0895
:104AA0009BB203F007039AB2FB8B1343FB837B6932
:104AB0001B68FA8BDA605BE0012387F82A3057E045
:104AC00097F82B30082B28D801A252F823F000BF0A
:104AD000F54A0008FD4A0008054B00081B4B00087A
:104AE0000B4B00081B4B00081B4B00081B4B00081E
:104AF000134B0008FFF74AFA786214E0FFF75CFAFC
:104B0000786210E0264B7B620DE0FFF7D1F9786206
:104B100009E04FF400437B6205E000237B62012340
:104B200087F82A3000BF7B6A002B21D07B695B6A43
:104B30001A4A32F813301A467B6AB3FBF2F27B69E9
:104B40005B685B081A447B695B68B2FBF3F33B620A
:104B50003B6A0F2B09D93B6AB3F5803F05D23B6A0C
:104B60009AB27B691B68DA6002E0012387F82A3079
:104B70007B690122A3F86A207B690122A3F86820DF
:104B80007B6900225A677B6900229A6797F82A306E
:104B900018463037BD46BDE8B08F00BF047F00081F
:104BA0000024F40080B483B000AF78607B689B6A17
:104BB00003F00803002B0AD07B681B685B6823F4B2
:104BC00000417B689A6B7B681B680A435A607B686C
:104BD0009B6A03F00103002B0AD07B681B685B68AB
:104BE00023F400317B68DA6A7B681B680A435A60E9
:104BF0007B689B6A03F00203002B0AD07B681B686A
:104C00005B6823F480317B681A6B7B681B680A43FE
:104C10005A607B689B6A03F00403002B0AD07B6810
:104C20001B685B6823F480217B685A6B7B681B6878
:104C30000A435A607B689B6A03F01003002B0AD07A
:104C40007B681B689B6823F480517B68DA6B7B6808
:104C50001B680A439A607B689B6A03F02003002B61
:104C60000AD07B681B689B6823F400517B681A6C30
:104C70007B681B680A439A607B689B6A03F0400369
:104C8000002B1AD07B681B685B6823F480117B685B
:104C90005A6C7B681B680A435A607B685B6CB3F58F
:104CA000801F0AD17B681B685B6823F4C0017B68A6
:104CB0009A6C7B681B680A435A607B689B6A03F0A6
:104CC0008003002B0AD07B681B685B6823F40021FB
:104CD0007B68DA6C7B681B680A435A6000BF0C373C
:104CE000BD465DF8047B704780B598B002AF786030
:104CF0007B680022C3F89020FCF714FD78657B6880
:104D00001B681B6803F00803082B2FD16FF07E434C
:104D100000937B6D00224FF40011786800F08EF84C
:104D20000346002B22D07B681B68BB63BB6B53E838
:104D3000003F7B637B6B23F080033B657B681B68D4
:104D40001A463B6D7B643A64396C7A6C41E8002307
:104D5000FB63FB6B002BE6D17B682022C3F8882025
:104D60007B68002283F88420032363E07B681B6850
:104D70001B6803F00403042B49D16FF07E430093BA
:104D80007B6D00224FF48001786800F057F80346ED
:104D9000002B3CD07B681B687B627B6A53E8003F3A
:104DA0003B623B6A23F49073FB647B681B681A4682
:104DB000FB6C3B63FA62F96A3A6B41E80023BB6221
:104DC000BB6A002BE6D17B681B6808333B613B69FB
:104DD00053E8003FFB60FB6823F00103BB647B6882
:104DE0001B680833BA6CFA61BB61B969FA6941E8BA
:104DF00000237B617B69002BE5D17B682022C3F80F
:104E00008C207B68002283F88420032312E07B68D7
:104E10002022C3F888207B682022C3F88C207B687E
:104E20000022DA667B6800221A677B68002283F81A
:104E30008420002318465837BD4680BD80B584B015
:104E400000AFF860B9603B601346FB714FE0BB698F
:104E5000B3F1FF3F4BD0FCF765FC02463B68D31A29
:104E6000BA699A4202D3BB69002B01D103234EE0F9
:104E7000FB681B681B6803F00403002B37D0BB687A
:104E8000802B34D0BB68402B31D0FB681B68DB69BA
:104E900003F00803082B10D1FB681B6808221A6274
:104EA000F86800F038F8FB680822C3F89020FB6827
:104EB000002283F88420012329E0FB681B68DB695A
:104EC00003F40063B3F5006F11D1FB681B684FF466
:104ED00000621A62F86800F01EF8FB682022C3F82E
:104EE0009020FB68002283F8842003230FE0FB68F6
:104EF0001B68DA69BB681340BA689A420CBF012389
:104F00000023DBB21A46FB799A42A0D00023184650
:104F10001037BD4680BD80B495B000AF78607B6827
:104F20001B687B637B6B53E8003F3B633B6B23F465
:104F30009073FB647B681B681A46FB6C3B64FA63E6
:104F4000F96B3A6C41E80023BB63BB6B002BE6D1E5
:104F50007B681B6808333B623B6A53E8003FFB6198
:104F6000FB6923F0805323F00103BB647B681B685B
:104F70000833BA6CFA62BB62B96AFA6A41E8002384
:104F80007B627B6A002BE3D17B68DB6E012B18D13F
:104F90007B681B68FB60FB6853E8003FBB60BB6835
:104FA00023F010037B647B681B681A467B6CBB6133
:104FB0007A617969BA6941E800233B613B69002B5A
:104FC000E6D17B682022C3F88C207B680022DA6659
:104FD0007B6800225A6700BF5437BD465DF8047BEA
:104FE000704780B485B000AF78607B6893F88430F8
:104FF000012B01D1022327E07B68012283F8842062
:105000007B682422C3F888207B681B681B68FB60D0
:105010007B681B681A687B681B6822F001021A60B3
:10502000FB6823F00053FB607B6800225A667B68B4
:105030001B68FA681A607B682022C3F888207B68A6
:10504000002283F88420002318461437BD465DF8FB
:10505000047B704780B584B000AF786039607B68AE
:1050600093F88430012B01D102232DE07B680122CB
:1050700083F884207B682422C3F888207B681B681F
:105080001B68FB607B681B681A687B681B6822F0E2
:1050900001021A607B681B689B6823F060417B6893
:1050A0001B683A680A439A60786800F04FF87B689A
:1050B0001B68FA681A607B682022C3F888207B6826
:1050C000002283F88420002318461037BD4680BD97
:1050D00080B584B000AF786039607B6893F8843025
:1050E000012B01D102232DE07B68012283F884206B
:1050F0007B682422C3F888207B681B681B68FB60E0
:105100007B681B681A687B681B6822F001021A60C2
:105110007B681B689B6823F060617B681B683A684A
:105120000A439A60786800F011F87B681B68FA6897
:105130001A607B682022C3F888207B68002283F8ED
:105140008420002318461037BD4680BD80B485B04A
:1051500000AF78607B685B6E002B08D17B68012212
:10516000A3F86A207B680122A3F8682031E00823B5
:10517000FB730823BB737B681B689B685B0EDBB209
:1051800003F007037B737B681B689B685B0FDBB2D4
:1051900003F007033B73BB7B3A7B11498A5C02FB3C
:1051A00003F33A7B0F498A5C93FBF2F39AB27B6874
:1051B000A3F86A20FB7B7A7B09498A5C02FB03F334
:1051C0007A7B08498A5C93FBF2F39AB27B68A3F876
:1051D000682000BF1437BD465DF8047B704700BFF0
:1051E0001C7F0008247F00082DE9FF4757EC106B57
:1051F000002F0C4619463B46BBBF07F100431F4634
:1052000000232D230B700D9BDDF830A0914623F079
:105210002008BCBF32461646B8F1460F05D0B8F19B
:10522000450F00D10134022100E0032103AB0193BB
:1052300002AB009347EC106B5346224600F070FE21
:10524000B8F1470F054619D119F0010F0ED000EB48
:1052500004090022002330463946FBF75DFC08B103
:10526000CDF80C903022039B4B451ED3039B0E9A26
:105270005B1B2846136004B0BDE8F087B8F1460F09
:1052800000EB0409E5D10378302B0AD1002200237A
:1052900030463946FBF740FC18B9C4F10104CAF89E
:1052A0000040DAF800309944D3E7591C03911A7092
:1052B000D9E7F7B50029BABF49422D232B23092985
:1052C0000270437029DD0DF107031D460A271A46B7
:1052D000B1FBF7F607FB1614303402F8014C0C460C
:1052E000632C03F1FF333146F1DC3031941E03F8B7
:1052F000011C411C2346AB420AD30DF109039B1A42
:10530000AC4288BF002302330344181A03B0F0BD37
:1053100013F8016B01F8016FEDE730233031837032
:10532000C170031DF1E700002DE9F04F8DB00C4670
:10533000DDF8588016461F46054600F0EFFC03686E
:1053400004931846FAF7BCFF00230A93D8F80030FC
:105350000590073323F0070303F1080294F818A01F
:10536000D4F800B0C8F80020D3E9008929F0004340
:105370000793CDF81880C4E91289DDE906019C4B3A
:105380004FF0FF32FBF7FAFB70BBDDE90601984BEB
:105390004FF0FF32FBF7D4FB30BB00220023404626
:1053A0004946FBF7C3FB10B12D2384F84330914AE3
:1053B000914BBAF1470F94BF90469846032323615F
:1053C0002BF0040323604FF00009009733460BAA2B
:1053D0002146284600F0D2F9013040F08D804FF090
:1053E000FF300DB0BDE8F08F42464B46404649467F
:1053F000FBF7C4FB40B14B46002BBCBF2D2384F808
:1054000043307E4A7E4BD4E763680AF0DF0206929F
:105410005A1C3BD1062363604BF480620023226058
:1054200003930AABCDE901A309AB0093616849EC92
:10543000108B0DF123032846FFF7D6FE069B099932
:10544000472B804629D1C81C02DB6368994241DDA5
:10545000AAF1020A5FFA8AFA0139524604F15000B1
:105460000991FFF726FF0A9A1318012A8146236142
:1054700002DC2268D20701D5013323619DF8233075
:10548000002BA2D02D2384F843309EE7069A472AAA
:10549000C2D1002BC0D10123BDE7BAF1650FDBD922
:1054A000BAF1660F18D1002963680BDD216113B9C9
:1054B0002268D00702D501330B442361A1654FF068
:1054C0000009DBE713B92268D20701D50233F4E7FC
:1054D0000123F2E74FF0670A0A9B994205DB236834
:1054E0002161D807EAD54B1CE7E70029D4BFC1F1F9
:1054F000020201221344E0E723685A0507D4236916
:10550000424631462846B84701302BD167E7BAF109
:10551000650F40F2DD80D4E9120100220023FBF781
:10552000FBFA002833D0374A012331462846B847D2
:1055300001303FF454AFDDE90938434502DB23680D
:10554000D8070FD5DDE9042331462846B847013096
:105550003FF445AF4FF0000908F1FF3804F11A0A93
:10556000C84509DC23689B0700F10381E0680B9BB9
:105570009842B8BF184634E70123524631462846C0
:10558000B84701303FF42BAF09F10109E8E7099B67
:10559000002B39DC1B4A012331462846B84701302D
:1055A0003FF41DAFDDE9093959EA030302D123684D
:1055B000D907D7D5DDE9042331462846B84701305D
:1055C0003FF40DAF4FF0000A04F11A0B099B5B4248
:1055D000534501DC4B4693E701235A4631462846A2
:1055E000B84701303FF4FBAE0AF1010AEEE700BF15
:1055F000FFFFEF7F2C7F0008307F0008347F00081A
:10560000387F00083C7F0008A36DDDF828A05345D3
:10561000A8BF5346002B994636DC4FF0000B29EA11
:10562000E97904F11A02A36D0693A3EB09035B4524
:1056300031DC099B9A453ADC2368DA0737D4099BA9
:10564000AAEB0309069BAAEB03039945A8BF994659
:10565000B9F1000F33DC4FF0000829EAE97904F1D1
:105660001A0B099BAAEB0303A3EB090343457FF73E
:1056700079AF01235A4631462846B84701303FF4F6
:10568000AEAE08F10108ECE7424631462846B8477D
:105690000130C2D1A3E60123314628460692B8471D
:1056A00001303FF49CAE069A0BF1010BBBE7DDE93C
:1056B000042331462846B8470130C0D18FE6069A08
:1056C0004B46424431462846B8470130C3D186E6AE
:1056D000DDF828A0BAF1010F01DCDB0736D5012384
:1056E000424631462846B84701303FF478AEDDE9FE
:1056F000042331462846B84701303FF470AED4E960
:105700001201002200230AF1FF3AFBF705FAC0B9A3
:10571000534608F1010231462846B84701300CD102
:105720005DE601235A4631462846B84701303FF42A
:1057300056AE08F10108D045F3DB4B4604F15002A8
:10574000DFE64FF0000804F11A0BF4E701234246AC
:10575000E1E701234A4631462846B84701303FF485
:105760003EAE08F10108E3680B995B1A4345F0DC93
:10577000FCE64FF0000804F11909F4E72DE9F047C1
:10578000164698468A680B69DDF820909342B8BFA8
:105790001346336091F8432007460C460AB10133A3
:1057A00033602368990642BF33680233336025684B
:1057B00015F0060506D104F1190AE36832689B1A50
:1057C000AB4226DC94F843302268003B18BF01232B
:1057D00092062BD404F1430241463846C8470130B3
:1057E0001ED02368226903F00603042B02BFE5687C
:1057F0003368ED1AA3680CBF25EAE57500259342CE
:10580000C4BF9B1AED1800261A34B5421AD10020E5
:1058100008E00123524641463846C847013003D1CB
:105820004FF0FF30BDE8F0870135C6E7E1185A1C9C
:10583000302081F84300224494F8451082F8431048
:105840000233C7E70123224641463846C8470130A4
:10585000E6D00136D9E700002DE9FF470F7E0C9E08
:10586000782F914680460C469A4601F1430207D8AC
:10587000622F0AD8002F00F0D280582F00F0B98094
:1058800004F1420684F842703AE0A7F16303152B55
:10589000F6D801A151F823F0F15800080559000885
:1058A0008158000881580008815800088158000874
:1058B00005590008815800088158000881580008DF
:1058C00081580008055A00082F590008BF590008E0
:1058D0008158000881580008275A0008815800089C
:1058E0002F5900088158000881580008C75900083E
:1058F00033681A1D1B68326004F1420684F8423096
:1059000001239DE033682068191D3160060601D52A
:105910001D6803E04506FBD5B3F90050002D03DAFE
:105920002D236D4284F8433059480A2311E0216841
:105930003368080653F8045B02D4490648BFADB289
:105940006F2F5348336014BF0A230823002184F8C3
:1059500043106668A660002EA2BF216821F00401F2
:1059600021600DB9002E4BD01646B5FBF3F103FBB9
:105970001157C75D06F8017D2F46BB420D46F4D98D
:10598000082B0BD12368DF0708D52369616899428A
:10599000DEBF302306F8013C06F1FF36921B226180
:1059A000CDF800A04B4603AA21464046FFF7E6FE8D
:1059B00001304AD14FF0FF3004B0BDE8F0872368D2
:1059C00043F0200323603348782784F84570236828
:1059D00031681F0651F8045B02D45F0648BFADB2C0
:1059E0003160D90744BF43F0200323601DB1102369
:1059F000ACE72748E9E7236823F020032360F6E7B4
:105A00001646BDE7336825686169181D30602E06AB
:105A10001B6801D5196002E06806FBD519800023D8
:105A200023611646BCE733681A1D32601E6862683F
:105A300000213046FAF7F4FB08B1801B6060636810
:105A40002361002384F84330AAE72369324649469C
:105A50004046D0470130ADD023689B0713D4E0689F
:105A6000039B9842B8BF1846A6E701233246494631
:105A70004046D04701309DD00135E36803995B1A59
:105A8000AB42F2DCEBE7002504F11906F5E700BFB5
:105A90003E7F00084F7F0008002310B50446C0E990
:105AA0000033C0E90433836081814366C28183612E
:105AB000194608225C3000F028F90D4B63620D4B4B
:105AC000A3620D4BE3620D4B23630D4B24629C429A
:105AD00006D003F16802944202D0D0339C4205D133
